{
  "_format": "hh-sol-artifact-1",
  "contractName": "CustodyToken",
  "sourceName": "contracts/custory.sol",
  "abi": [
    {
      "inputs": [],
      "stateMutability": "nonpayable",
      "type": "constructor"
    },
    {
      "inputs": [
        {
          "internalType": "string",
          "name": "input_",
          "type": "string"
        }
      ],
      "name": "SeeInput",
      "outputs": [],
      "stateMutability": "pure",
      "type": "function"
    }
  ],
  "bytecode": "0x608060405234801561001057600080fd5b506100556040518060400160405280601981526020017f4465706c6f79696e67206120437573746f647920546f6b656e0000000000000081525061005a60201b60201c565b61023b565b6100f68160405160240161006e91906101ea565b6040516020818303038152906040527f41304fac000000000000000000000000000000000000000000000000000000007bffffffffffffffffffffffffffffffffffffffffffffffffffffffff19166020820180517bffffffffffffffffffffffffffffffffffffffffffffffffffffffff83818316178352505050506100f960201b60201c565b50565b61011a8161011561011d60201b61008e1761013e60201b60201c565b60201c565b50565b60006a636f6e736f6c652e6c6f679050600080835160208501845afa505050565b61015060201b61017017819050919050565b61015861020c565b565b600081519050919050565b600082825260208201905092915050565b60005b83811015610194578082015181840152602081019050610179565b60008484015250505050565b6000601f19601f8301169050919050565b60006101bc8261015a565b6101c68185610165565b93506101d6818560208601610176565b6101df816101a0565b840191505092915050565b6000602082019050818103600083015261020481846101b1565b905092915050565b7f4e487b7100000000000000000000000000000000000000000000000000000000600052605160045260246000fd5b6104388061024a6000396000f3fe608060405234801561001057600080fd5b506004361061002b5760003560e01c80637b9a7a4714610030575b600080fd5b61004a600480360381019061004591906102d4565b61004c565b005b61008b6040518060400160405280600b81526020017f496e7075743a2027257327000000000000000000000000000000000000000000815250826100af565b50565b60006a636f6e736f6c652e6c6f679050600080835160208501845afa505050565b61014782826040516024016100c592919061039c565b6040516020818303038152906040527f4b5c4277000000000000000000000000000000000000000000000000000000007bffffffffffffffffffffffffffffffffffffffffffffffffffffffff19166020820180517bffffffffffffffffffffffffffffffffffffffffffffffffffffffff838183161783525050505061014b565b5050565b6101628161015a61008e610165565b63ffffffff16565b50565b610170819050919050565b6101786103d3565b565b6000604051905090565b600080fd5b600080fd5b600080fd5b600080fd5b6000601f19601f8301169050919050565b7f4e487b7100000000000000000000000000000000000000000000000000000000600052604160045260246000fd5b6101e182610198565b810181811067ffffffffffffffff82111715610200576101ff6101a9565b5b80604052505050565b600061021361017a565b905061021f82826101d8565b919050565b600067ffffffffffffffff82111561023f5761023e6101a9565b5b61024882610198565b9050602081019050919050565b82818337600083830152505050565b600061027761027284610224565b610209565b90508281526020810184848401111561029357610292610193565b5b61029e848285610255565b509392505050565b600082601f8301126102bb576102ba61018e565b5b81356102cb848260208601610264565b91505092915050565b6000602082840312156102ea576102e9610184565b5b600082013567ffffffffffffffff81111561030857610307610189565b5b610314848285016102a6565b91505092915050565b600081519050919050565b600082825260208201905092915050565b60005b8381101561035757808201518184015260208101905061033c565b60008484015250505050565b600061036e8261031d565b6103788185610328565b9350610388818560208601610339565b61039181610198565b840191505092915050565b600060408201905081810360008301526103b68185610363565b905081810360208301526103ca8184610363565b90509392505050565b7f4e487b7100000000000000000000000000000000000000000000000000000000600052605160045260246000fdfea2646970667358221220ce6efc6c196fd9da1532af2734b24d0b6f240919ccc22dc1cb8592b815d4f4ae64736f6c63430008180033",
  "linkReferences": {},
  "deployedLinkReferences": {}
}